:020000040800F2
:1000000000090020E5420008AD420008AF420008A8
:10001000B1420008B3420008B542000800000000E9
:10002000000000000000000000000000B7420008CF
:10003000B942000800000000BB420008BD420008B1
:10004000FD42000801430008054300080943000879
:100050000D43000811430008154300081943000828
:100060001D430008214300082543000829430008D8
:100070002D43000831430008354300083943000888
:100080003D43000841430008454300084943000838
:100090004D430008514300085543000859430008E8
:1000A0005D43000861430008654300086943000898
:1000B0006D43000871430008754300087943000848
:1000C0007D430008814300088543000889430008F8
:1000D0008D430008914300089543000899430008A8
:1000E0009D430008A1430008A543000840F02000FC
:1000F00070472DE9F14FB0B0924604910DF14201E5
:100100003A9A2B9199464A7000200AE01AF8011B8E
:100110000498309A90470028049000F031860D989A
:10012000401C0D909AF8000050B12528EED1002116
:1001300000220791089209910A920B910C9204E017
:100140000D9800F01FBE41F001011AF8010F2028A0
:10015000F9D023280CD02B2804D02D2805D0302806
:1001600009D00BE041F00201EFE741F00401ECE7B8
:1001700041F00801E9E741F01001E6E72A280FD134
:10018000D9F8002052F8040BC9F8002000280F907D
:1001900003D540420F9041F004010AF1010A14E036
:1001A0000F92DFF8E83B0AE00F98984205DA00EB7F
:1001B000800402EB4402303A0F920AF1010A9AF8E5
:1001C0000020A2F130000A28EED39AF800002E2871
:1001D00003D04FF0FF320E9229E01AF8010F2A28BF
:1001E00009D1D9F8000050F8042BC9F800000E928C
:1001F0000AF1010A1BE02D280CBF0AF1010A0020B8
:1002000000220E92DFF8844B0BE040B90E9AA24216
:1002100005DA02EB820503EB4503303B0E930AF14E
:10022000010A9AF80030A3F130020A2AEDD3ADF8A2
:1002300040100FF65C309AF8001000F0C1FE08B1D3
:100240001AF8010B8DF842009DF84200682805D18C
:100250009AF8000068280CD1622106E06C2804BFDF
:100260009AF800006C2804D171218DF842100AF12F
:10027000010A12A806901AF801BBBBF125012CD087
:100280001C3900F09481091F022940F29081133932
:1002900000F0A884093900F08A81891E00F03D85AC
:1002A000491E00F0EA84491E022940F28081091F9C
:1002B00000F0E384491F00F0EF80491E00F09284B3
:1002C000491E00F0D780C91E0CD0891E00F08A8418
:1002D000C91E00F0878400F02BBD01220792252162
:1002E00000F023BDD9F8000050F8044BC9F8000015
:1002F000002C059440F0AB802B994878002800F042
:10030000A1804FF0FF340FF6902000F069FE201A14
:1003100040F0368500F018BD01236A4602A9304638
:1003200000F0FEFD002840F02B856D1EF4D13096C4
:10033000079D12AF75B1309E17F8011B0498B047A6
:100340000028049000F01C850D98401C6D1E0D9037
:10035000F2D130960A9D3021002D8DF800100CDD71
:10036000309E01236A4602A9304600F0D9FD0028DC
:1003700040F006856D1EF4D13096059F089D75B13D
:10038000309E17F8011B0498B0470028049000F035
:10039000F7840D98401C6D1E0D90F2D130960B9D88
:1003A0003021002D8DF800100CDD309E01236A46AF
:1003B00002A9304600F0B4FD002840F0E1846D1E33
:1003C000F4D1309605980899099D471875B1309E6B
:1003D00017F8011B0498B0470028049000F0D0845F
:1003E0000D98401C6D1E0D90F2D130960C9D302161
:1003F000002D8DF800100CDD309E01236A4602A905
:10040000304600F08DFD002840F0BA846D1EF4D116
:1004100030969DF8400041077FF584AE2020002CE7
:100420008DF800007FF77EAE309D01236A4602A959
:10043000284600F075FD002840F0A284641EF4D127
:1004400030956FE60FF63830059000F07DBC0E9DBC
:10045000002D04D5204600F0E3FD044607E02A46BF
:10046000204600F0E7FD002814BF041B2C4608942A
:1004700000F06ABCD9F8001051F8040BC9F800105C
:1004800020F00004002121F0FF35CDE9024512AB38
:100490000593782100F03DBC2B99487820B14FF0AE
:1004A000FF340FF6AC2030E79DF84200622860D0A0
:1004B000682817D06A283FD06C2806D0712847D00A
:1004C00074282CD07A281DD062E0D9F8001051F899
:1004D000040BC9F80010002866D14FF0FF340FF666
:1004E000882012E7D9F8001051F8040BC9F8001061
:1004F00020B94FF0FF340FF6702006E70D99018008
:1005000000F022BCD9F8001051F8040BC9F8001013
:10051000002849D14FF0FF340FF64C20F5E6D9F80A
:10052000001051F8040BC9F8001000283CD14FF01E
:10053000FF340FF63420E8E6D9F8001051F8040B28
:10054000C9F8001080B94FF0FF340FF61C20DCE62C
:10055000D9F8001051F8040BC9F8001020B94FF079
:10056000FF340FF60420D0E60D9AD317C0E900231C
:10057000EAE3D9F8001051F8040BC9F8001020B9CB
:100580004FF0FF340FF6E010BFE60D990170DBE38A
:10059000D9F8001051F8040BC9F8001020B94FF039
:1005A000FF340FF6C410B0E60D990160CCE39DF85E
:1005B00042004C2807BFD9F80010CB1DD9F8000025
:1005C000C31D23F00703C9F80030D3E90001083345
:1005D000C9F80030CDE90201C80F02D007982D21DB
:1005E0000AE0BDF84000810702D507982B2103E0FF
:1005F000C00705D50798202112AB1954401C07905D
:1006000012A80799DDE9024543184BF02000612844
:10061000059321AE0BD00E98002802D506200E902F
:1006200005E001BF4BF02000672801210E91DDE9B4
:1006300002014F007F1517F1010F0DD108030BD0F8
:10064000ABF1610203201A2A089002D20FF634118E
:100650000FE00FF634110CE017F1010F0ED1090372
:100660000CD1ABF1610203201A2A08901CD30FF6BB
:1006700020110322184600F009FD65E3DDE90201BF
:100680006A4600F057FDCDE902014BF020006128D9
:1006900011D1059830210170821C0592BBF1610FC8
:1006A0000CBF7821582102E00FF6E001E1E741702C
:1006B0000798801C0790DDE9020120F0000231F06C
:1006C000004308BF002A02D10025002445E14BF079
:1006D0002008B8F1610F40F095800E98002847BFC0
:1006E00021210191401C0190019F7F1C2046294639
:1006F00000220023DDE9024500F054FD38BF85F0FB
:10070000004500998DF88420091F002F00910DF1FC
:10071000850034DD0646204629460022002300F0ED
:100720005BFD2BD21C2200F071FD04460D4600F04B
:100730000BFEFF1F002F804609DD00F021FE024660
:100740000B462046294600F0E3FE04460D46F01D08
:100750000721B8F1000F0CDD491E5EBF08F00F0243
:1007600000F8012D4FEA2818F3D502E0002200F826
:10077000012D491EFAD5C61D002FCCDC30460DF1E7
:100780008501401A01990DF1850605468842C8BFCA
:100790000D46002D2FD4854206DA0DF18500415D0E
:1007A0000829A8BF0F2000DA0020294621AA0A4400
:1007B00000E06D1E12F80139491E8342F9D00F285E
:1007C00004D10DF18500425C521C4254002904D52D
:1007D0000098001D21AE6D1C0090681E0BD43118CE
:1007E0000A783032D3B23A2BA4BF5A443A3A401E68
:1007F00001F80129F4D50E98002840F1AD80691E5A
:100800000E91A9E00099DFF8082747F2975041437D
:1008100091FBF2F2009225F00045C2F10702002A96
:1008200004DD2046294600F04FFB0BE05242002039
:10083000DFF8E01600F048FB02460B46204629464A
:1008400000F0D8FE04460D46B8F1660F06BF009FC3
:100850000A3706270E983F18142FC8BF14273020D8
:100860008DF884000DF1850000E03046002F35DD65
:1008700006462046294600F0E1FF01460A4606F1F9
:10088000080304200A26B2FBF6F606EB860EA2EB5E
:100890004E02303203F8012C0A22B6FBF2F202EBD0
:1008A000820EA6EB4E063036401E03F8026DE9D1EB
:1008B000083F002F03F10806D7DD084600F0D0FFFF
:1008C00002460B462046294600F022FE0022DFF8B1
:1008D000483600F0D3FF04460D46CAE70DF1850106
:1008E000401A0DF1850604E00099491E401E009152
:1008F000761C31783029F7D0B8F1660F02D1009913
:10090000491C04E0B8F1650F0CBF012100210E9DC8
:100910004D19A842B8BF451E002D1DD4854204DAEA
:10092000705D3428C8BF392000DC30202946721E93
:10093000531800E06D1E13F80149491E8442F9D096
:10094000392802D1705C401C7054002904D50098ED
:10095000401C16466D1C0090009C01F065F8406A32
:100960000778DDF8388028B2002802DC01250FF274
:1009700024664BF02000662808BF641C16D0672848
:1009800046D120B210F1040F48DB404546DA9DF80D
:100990004000641C010703D428B24045D8BF8046FC
:1009A00020B2B8EB000848BF4FF000080FFA84FBF4
:1009B000BBF1000F00F3B5800898411C089130226C
:1009C00005990A54B8F1000F03DC9DF840000107B7
:1009D00004D50898411C089105990F5418EB0B0F8A
:1009E000B8BFC8F1000424B26042A0442AB20B9000
:1009F0009045B8BF4546059B08982DB209952A46F3
:100A00003146184400F042FBA8EB05000C90D2E000
:100A1000BBF1610F17D14FF0700B19E028B24045C0
:100A200004DA9DF840100A0758BF8046B8F1010863
:100A300048BF4FF00008BBF1670F14BF4FF0450BE4
:100A40004FF0650B04E0BBF1410F08BF4FF0500BB6
:100A50000898411C0891B8F1000F059916F8012B70
:100A60000A5403DC9DF8400001071AD50898411C80
:100A70000891B8F1000F05990F5412DD6D1E28B2D0
:100A80008045B8BF45460598089B2AB231461844B0
:100A900000F0FCFA08992DB269180891A8EB05003E
:100AA0000B9005980899084421B2002980F800B0FD
:100AB00003D42B224270821C04E02D2242700C468B
:100AC000821C644200212CAB20460AE004460A2026
:100AD00094FBF0F000EB8005A4EB450403F8014B18
:100AE000491C00B20028F1DC012906DC4BF0200093
:100AF000652804BF302002F8010B00292CAB08D177
:100B0000302002F8010B06E0491E585C303002F834
:100B1000010B0029F8DC059908980844121A09927B
:100B200049E028B221B288421CDA0598089B2AB213
:100B30003146184400F0AAFA08992DB269180891B4
:100B4000ABEB0500B8F1000F0B9003DC9DF8400003
:100B5000020704D5059847540999491C0991CDF815
:100B6000308028E00598089B22B23146184400F0F6
:100B70008DFA08982D1B5844B8F1000F089003DC3B
:100B80009DF840100A0703D5411C089105990F54A0
:100B900028B28045B8BF45460598089B2AB206EBA7
:100BA0000B01184400F072FA08982DB2281808902A
:100BB000A8EB05000B909DF8400000F014001028F1
:100BC00040F0C280079A08990B988A1809998218F0
:100BD0000C988A1882180F98824280F2B580821A87
:100BE0000A92B1E09DF84200622808D068280ED031
:100BF0006A2814D06C281FD0712810D01CE0D9F8B6
:100C0000001051F8040BC9F80010C0B21AE0D9F86E
:100C1000001051F8040BC9F8001080B212E0D9F8A6
:100C20000000C21D22F00702C9F80020D2E900012D
:100C30000832C9F8002006E0D9F8001051F8040B7A
:100C4000C9F800100021CDE902019DF8400001071C
:100C50005AD5DDE90223002B08BF002A54D04BF0FF
:100C60002000782850D1079812A930220A54401C3D
:100C7000431C079301F800B046E09DF8420062284B
:100C800008D068280ED06A2814D06C281FD071288C
:100C900010D01CE0D9F8001051F8040BC9F800106E
:100CA00040B21AE0D9F8001051F8040BC9F800104E
:100CB00000B212E0D9F80000C21D22F00702C9F804
:100CC0000020D2E900010832C9F8002006E0D9F876
:100CD000001051F8040BC9F80010C117CDE902014A
:100CE000002902D507982D210AE0BDF840008107B0
:100CF00002D507982B2103E0C00705D507982021CE
:100D000012AA1154401C079012A80799014405919A
:100D1000594602A800F04EF816E001200790D9F8D5
:100D2000000050F8041BC9F800008DF848100BE0D3
:100D300001212522BBF1000F07918DF8482003D037
:100D4000022207928DF849B00F9A07980A990C9CD5
:100D5000121A0898521A0B99121A0998521A121A52
:100D60009DF84000141B41073FF5E2AA2020002C0B
:100D70008DF800007FF7DCAA309E2546FFF7CCBA3D
:100D80004FF0FF3031B0BDE8F08F0000CBCCCC0C81
:100D9000686A6C747A4C00007072696E74665F7376
:100DA0003A2062616420257320617267756D656EFB
:100DB000740000002DE9FC4707468A463C6950460E
:100DC0006F2808BF082505D0FFF790F9782814BFD1
:100DD0000A251025D7E900013C2680468946BAF14C
:100DE000640F18BFBAF1690F05D1002903D5D8F1F6
:100DF000000869EB4909B9F1000F08BFB8F1000F0D
:100E00000CD1386B50B9082D3AD197F8380001074A
:100E100036D530223B2684F83B2031E08DF800A007
:100E2000404649462A46EB1700F002FE3032D0B267
:100E3000761E3A2801960EDAA255404649462A46C1
:100E4000EB1700F0F5FD80465FEA010908BFB8F135
:100E5000000F05D108E09DF800001218513AEBE7A9
:100E6000F868A1198842DBD3082D09D197F838001A
:100E7000010705D5A05D302802D0761E3020A05590
:100E8000C6F13C02BA61A119F960386B824208DAF6
:100E9000821A3A624FF6EF70398F01403987BDE808
:100EA000F38700280ED597F8380000F014001028BA
:100EB00008D17B6B7969386A5B1A1B1A9A1A002A67
:100EC000C8BF3A62BDE8F3872DE9D04306460F4616
:100ED00014464FF00008DFF8449012E0E00707D511
:100EE00042464B463046394600F0C8FC06460F469F
:100EF0004046494642464B4600F0C0FC64108046DE
:100F00008946002CEAD130463946BDE8D08300003E
:100F1000A08601000000F03F84D7974100002440E4
:100F2000F8B505460E4617461C4600205CB117F87A
:100F3000011BB068A847B06030B1F06A401CF06295
:100F40000020641EF3D1F2BD4FF0FF30F2BD00006F
:100F50007072696E74665F733A20256E20646973DF
:100F6000616C6C6F776564007072696E74663A20AC
:100F700062616420256E20617267756D656E740014
:100F8000000000006E616E004E414E00696E66000A
:100F9000494E460030000EE00268436802440830C3
:100FA0005FEAC37C44BF4B445B1E52F804CB43F85A
:100FB00004CB091FF9D150F8041B0029ECD170476C
:100FC000C9B202788A421AB11CBF10F8012FF9E7A2
:100FD00018BF002070470268531C036011707047EF
:100FE00080B500B906A005490B681BB1222200217B
:100FF000984701E000F034FE222002BDF8040020F2
:10100000636F6E73747261696E742068616E646C74
:1010100065723A20626164206D6573736167650073
:1010200000F1010310F8011B11B110F8011BFBE7DF
:10103000C01A7047C9B2830706D0521E22D310F8D7
:10104000013B9942F7D11FE0083A13D302F10402A1
:1010500041EA012141EA014150F8043B121F21BF3E
:101060004B40A3F1013C2CEA030C1CF0803FF3D071
:10107000C9B2001F083210F8013B521E28BF91EA86
:10108000030FF8D818BF0120401E704762B38B07CA
:1010900008D0521E11F8013B00F8013B00F02480FB
:1010A0008B07F6D1830740F0208000BF103A07D3AA
:1010B00030B4B1E83810103AA0E83810F9D230BC9A
:1010C000530724BFB1E80810A0E8081044BF51F846
:1010D000043B40F8043BD20724BF31F8022B20F830
:1010E000022B44BF0B7803707047121F17D35B00AD
:1010F00009D151F8043B20F8023B1B0C121F20F8C9
:10110000023BF6D20BE051F8043B00F8013B1B0A0E
:1011100020F8023B1B0C121F00F8013BF3D238BF32
:10112000121D521E24BF11F8013B00F8013BF8D8F4
:1011300070472E0010B5144600F002F8226010BD72
:10114000C1F30A5343B14A0012F5001F28D2A3F29B
:10115000FE32A1EB0251704750EA410C20D001F061
:10116000004C31EA0C01B1FA81F204BFB0FA80F30D
:10117000D2180B3AB2F120032CBF00FA03F19140D0
:1011800041EA0C013EBFC2F1200C20FA0CF31943D6
:101190009040524240F2FD33D21A01EB03517047A6
:1011A0000022704741EA030C50EA4C0C52EA0C0C46
:1011B0004FF4001C09D307D01CEB410F9CBF1CEB64
:1011C000430F8B4208BF824270471CEB430FFBD892
:1011D000994208BF9042704741EA030C50EA4C0C18
:1011E00052EA0C0C4FF4001C09D307D01CEB410F42
:1011F0009CBF1CEB430F994208BF904270471CEB09
:10120000410FFBD88B4208BF82427047124254D430
:1012100040F2FF7C1CEA11530FD0634531D09B187C
:1012200063453CBF01EB0251704701F0004141EAC8
:101230000C510020AFF30080704750EA410320D0EA
:1012400001F0004C91EA0C011CD0B1FA81F30B3B88
:101250009A420DD9D21A994051EA0C01C3F1200CDF
:1012600020FA0CFC61449840531C40F2FF7CD7E705
:10127000914041EA0C01C2F1200C20FA0CF3194311
:1012800090407047B0FA80F31533202BE0D3202A2A
:10129000EED3203A203B9A4209D9D21A00FA03F140
:1012A00041EA0C010020531C40F2FF7CB8E700FA31
:1012B00002F141EA0C0100207047524240F2FF7CEB
:1012C0001CEA11530DD06345DBD0B2EB030C3CBFDD
:1012D000A1EB025170470CF1010221EA035141F4E4
:1012E000801150EA410CCCD001F0004C352A27DCAB
:1012F00030B481EA0C01B2F1200309DAC2F1200313
:10130000044601FA03F5D0402843D1409C400CE04C
:10131000C3F12002450020FA03F418BF44F0010491
:1013200021FA03F091400C43002174F1004550F183
:10133000000051EB0C01244230BC7FF47BAF7047BE
:101340006146002076E70000C1F30A5340F21E42D6
:10135000D31A0CDDCA0283F3070342EA505242F06B
:101360000042DA4002EBE17282EAE17070476FEA14
:10137000E17203F2E13008B182F0004070470000F2
:1013800010F0004160B148BF4042B0FA80F2904096
:10139000D21CC2F5846241EA025202EBD021400520
:1013A00070470000841A71EB030604D26E40001BE4
:1013B000B141121973414FF4001C1CEB410F34BFB3
:1013C0007CEB430683E00C0DA4EB1356362E00F3A2
:1013D0007C80012E45EAC32341DC43EA525312BF0D
:1013E000D20292025B08240545EAC12141EA50512C
:1013F000D2EBC020994125D407D1B0FA80F610FA7B
:1014000006F162D00020203608E0B1FA81F6B14042
:10141000C6F1200220FA02F21143B0404FEAF47400
:10142000B4EB465434F001064FEA74040AD8D6F5FA
:101430000016760D04F00044F04061FA06F25040C8
:10144000F1404840C00A40EA415021F0004128BF25
:101450005FEA500550F1000044EBD12135E0DB0A92
:1014600045EAC121C90AB6F120050EDD42EA024271
:10147000120CC5F1200603FA06F6EB4042EA060517
:101480006D42984161F100010DE062FA06F5F2400B
:10149000554063FA06FC82EA0C02F3405A406D4262
:1014A000904161EB030111F4801F05D1641E6205B8
:1014B00002D06D004041494121F48011430875F18B
:1014C000004350F1000041EB045170BC70471CEB2D
:1014D000410F15D223F0004352EA43060BD04FEAE6
:1014E0004C0CBCEB410F04D80C0D661E342EB7DD3E
:1014F000EBE7801A994150EA410608BF0021E4E772
:1015000008BF1CEB430F28BF6FF00001DDE70000B0
:1015100070B491EA030F4FF000457FF543AF6B4085
:10152000841A71EB030603D2001BB14112197341F7
:101530004FF4001C1CEB410F34BF7CEB430442E032
:101540000C0DA4EB1356352E4FDC45EAC323DB0A02
:1015500045EAC121C912B6F120050DDD63FA05F691
:10156000EB4086EA0305124218BF45F00105C0189A
:1015700051F100010CD213E062FA06F5F240554039
:10158000F3415A40B340F3405A408018594107D3C1
:1015900049085FEA30005FEA350528BF45F00105DC
:1015A00001F58011420875F1004250F1000041EB55
:1015B00004514E0016F5001F70BC38BF7047002064
:1015C000090D090570471CEB410F10D252EA430682
:1015D0000BD0BCEB410F05D80C0DAB43661E342E6F
:1015E000B6DD02E0AB438018594170BC704770BC57
:1015F00070470000F0B540F2FF7581EA030C0CF073
:10160000004C15EA11541DBF15EA1357AC42AF4206
:10161000E5E0BC41C1F31301C3F31303801A994100
:1016200043F4801304D2641E0018494180185941C4
:10163000C90241EA5051B1FBF3F603FB1611A2FBBC
:101640000675D7EBC020A94102D2761E80185941F9
:10165000C90241EA5051B1FBF3FE03FB1E11A2FB8C
:101660000E75D7EBC020A94103D2AEF1010E801850
:101670005941890241EA9051760546EA8E2EB1FB26
:10168000F3F603FB1611A2FB0675D7EB8020A941E8
:1016900002D2761E80185941C90241EA50514EEAE1
:1016A000060EB1FBF3F603FB1611A2FB0675D7EB92
:1016B000C020A94102D2761E80185941C90241EAD0
:1016C0005051B1FBF3F703FB1711A2FB0735D3EB26
:1016D000C020A94167F100070CBF004247F0010795
:1016E00066F3D5274FEA1E31B80814F5806412DD81
:1016F000BD0775F1004250EB0E5051EB045111F54E
:10170000801F5CBF41EA0C01F0BD4CF07F6141F0ED
:10171000E0410020F0BDBD076D0840EA0E5041F4E5
:101720008011D4F10104B4F120060ADAC4F12006D4
:101730000200E04001FA06F3E1401843B2401543CD
:101740000EE0342C13DCC6F1200445EA40056D0898
:1017500020FA06F2154321FA06F0A1400D430021BC
:1017600075F1004250F1000051EB0C01F0BD00207A
:101770005FEA0C01F0BDCFB992185B41B3FA83F771
:1017800004BFB2FA82F6BF190B3FB7F120062FBF94
:1017900002FA06F3BB40C7F1200622FA06F638BF6C
:1017A0003343BA401CB1E419641E33E77F4231F081
:1017B0000041B1FA81F404BFB0FA80F6A4190B3CE1
:1017C000B4F120062FBF00FA06F1A140C4F12006B3
:1017D00020FA06F638BF3143A0403C1B1AE7AC4262
:1017E0001ABF05EA1357AF4212E050EA41061CBF88
:1017F00052EA4306BFE750EA4107304661461CBF44
:1018000041EA0551F0BD52EA430C08BFC143F0BDA7
:1018100000204FF4001616EB410F98BF16EB430F54
:1018200008BF16EB410F24BFC14305E016EB430F81
:101830000CBF61464CEA0551F0BD0000400D40F27E
:101840001E4C40EAC120BCEB115C40F0004003D4C8
:101850008CF30701C84070476FEAE17070470000E1
:1018600050B1B0FA80F18840C91CC1F58461090506
:1018700001EBD021400570470146704730B540F27A
:10188000FF7C1CEA11541DBF1CEA135564456545D5
:101890003FE0641981EA030C6FF35F530CF0004CD6
:1018A00043F48013C90241F0004141EA505EC50291
:1018B0001100A5FB020200284FF00000EEFB012002
:1018C0004FF00001E3FB052118BF42F00102401870
:1018D00000214941E3FB0E01A4F580640D0302D20F
:1018E00092184041494154F1010470DD450872F1FC
:1018F000004250F1000051EB0451A1F5801102D4D7
:1019000041EA0C0130BD40F2FF7E4CEA0E5100204E
:1019100030BD0CEA1355644518BF654581EA030CD8
:101920000CF0004C41D050EA410E1CBF52EA430E6D
:1019300002E06146002030BD24422C441BD15FEA06
:10194000050EF6D0090302BF01460020AEF1140EC9
:10195000B1FA81F5AEEB050401FA05FE0C35C5F1CF
:10196000200100FA05F5C8404EEA000E6FF35F5300
:1019700043F480139CE733F00043B3FA83F504BFCC
:10198000B2FA82FE75440B3D641BB5F1200E2FBFE9
:1019900002FA0EF3AB40C5F1200E22FA0EFE38BF5C
:1019A00043EA0E03AA40641C7CE750EA410E14BFD0
:1019B00052EA430E6FF000014FF4001515EB430F90
:1019C0008EBF194615EB410F9DE7B4D830BDD4F159
:1019D0000104B4F120050FDAC4F12005520828BF34
:1019E00042F0010210FA05FE01FA05F57244E2BF69
:1019F000E0402843E1400FE0352C9ADCC5F120049B
:101A000052EA400220FA05F218BF42F0010231FA10
:101A100005F0A1400A43002172F1004250F100009C
:101A200051EB0C0130BD0000004870471800002049
:101A3000BBBBE1B1B2F5803F80F07E80022A1ED9A7
:101A40008C46B1FBF2F102FB11C31B0443EA1043C5
:101A5000B3FBF2FC02FB1C3380B240EA0343B3FB4E
:101A6000F2F002FB103240EA0C4000237047022AD9
:101A700005D98446B0FBF2F002FB10C270474AB1B0
:101A800005D100F0010249085FEA300070470022EA
:101A90000023704700F0E8B80B000200002100208E
:101AA0007047904271EB030CF6D3B3F5803F2FD211
:101AB000F0B5B3FA83F7B1FA81F4A7F10F0E3D1B2D
:101AC0005340CEF1200602FA0EF2F3415340B5F135
:101AD0000F0746D80F3C2C444140C4F12006A040DB
:101AE000F1414140B1FBF3F603FB1611A2FB0645A1
:101AF000001BA94102D2761E8018594180EA0102DA
:101B000021FA0EF362FA0EF200215A403046F0BD7F
:101B100030B4B1FBF3FC03FB1C11A2FB0C45001B12
:101B2000A94103D2ACF1010C8018594130BC0246E6
:101B30000B46604600217047B2F1807F65D3F0B557
:101B4000B2FA82F7B1FA81F4C7F10F063D1B22FA0F
:101B500006F307F1110EF24120355A40B5F10F0797
:101B6000B8D94140C4F12006A040F1414140B1FB49
:101B7000F3FC03FB1C11A2FB0C45001BA94103D283
:101B8000BCF1010C801859410F2F12D30F3FC9032C
:101B900041EA5041B1FBF3F603FB1611A2FB0645E7
:101BA000D4EBC030A94102D2761E8018594146EAD2
:101BB000CC3C07B34140C7F12006B840F141414059
:101BC000B1FBF3F603FB1611A2FB0645001BA9416E
:101BD00002D2761E8018594180EA010221FA0EF3E2
:101BE000C7F1200462FA0EF20CFA07F05A402CFA00
:101BF00004F13043F0BD80EA010221FA0EF3002126
:101C000062FA0EF260465A40F0BD8C46B1FBF2F12A
:101C100002FB11C31B0243EA1063B3FBF2FC02FB9D
:101C20001C331B024CEA002043EA1063B3FBF2FCB6
:101C300002FB1C331B024CEA002043EA1063B3FB97
:101C4000F2FC02FB1C331B024CEA002043EA106347
:101C5000B3FBF2FC02FB1C324CEA0020002370476D
:101C6000012000F003B800007047000080B5AFF31A
:101C70000080024A11001820ABBEFBE726000200DC
:101C80000000000000000000000000000000000054
:101C900000000000001000100010001000100010E4
:101CA00000000010000000000028002800280000AC
:101CB00000000000000000000000000000240024DC
:101CC000007C00240048007C004800480000000020
:101CD00000380054005000380014005400540038FC
:101CE000001000000020005400580030002800546C
:101CF0000014000800000000001000280028001058
:101D000000340048004800340000000000100010BB
:101D100000100000000000000000000000000000B3
:101D200000080010002000200020002000200020DB
:101D3000001000080020001000080008000800083B
:101D400000080008001000200010003800100028D3
:101D50000000000000000000000000000000000083
:101D600000100010007C00100010000000000000B7
:101D70000000000000000000000000000000001053
:101D800000100010000000000000000000000038FB
:101D90000000000000000000000000000000000043
:101DA0000000000000000010000000000008000813
:101DB00000100010001000100020002000000000A3
:101DC00000380044004400540044004400440038FB
:101DD0000000000000100030005000100010001043
:101DE000001000100000000000380044004400040F
:101DF000000800100020007C0000000000380044B3
:101E00000004001800040004004400380000000032
:101E100000080018002800280048007C000800087E
:101E200000000000007C0040004000780004000436
:101E300000440038000000000038004400400078F2
:101E4000004400440044003800000000007C00040E
:101E500000080010001000200020002000000000FA
:101E60000038004400440038004400440044003876
:101E7000000000000038004400440044003C00041E
:101E800000440038000000000000000000100000C6
:101E90000000000000000010000000000000000032
:101EA00000000010000000000000001000100010F2
:101EB00000000000000C003000400030000C00006A
:101EC00000000000000000000000007C0000007C1A
:101ED000000000000000000000000000006000188A
:101EE00000040018006000000000000000380044FA
:101EF00000040008001000100000001000000000A6
:101F000000380044004C0054005C004000400038A1
:101F10000000000000100028002800280028007C95
:101F200000440044000000000078004400440078B1
:101F300000440044004400780000000000380044E1
:101F40000040004000400040004400380000000015
:101F50000070004800440044004400440048007001
:101F600000000000007C00400040007C0040004079
:101F70000040007C00000000007C00400040007831
:101F800000400040004000400000000000380044D5
:101F900000400040005C00440044003800000000A5
:101FA000004400440044007C0044004400440044D9
:101FB0000000000000380010001000100010001099
:101FC00000100038000000000004000400040004B9
:101FD00000040004004400380000000000440048F1
:101FE000005000600050004800480044000000001D
:101FF0000040004000400040004000400040007CA5
:10200000000000000044006C006C005400440044D8
:1020100000440044000000000044006400640054D8
:102020000054004C004C0044000000000038004404
:102030000044004400440044004400380000000014
:102040000078004400440044007800400040004014
:1020500000000000003800440044004400440044F4
:10206000005400380004000000780044004400449C
:102070000078004800480044000000000038004498
:102080000040003000080004004400380000000058
:10209000007C001000100010001000100010001054
:1020A0000000000000440044004400440044004498
:1020B00000440038000000000044004400440028B0
:1020C0000028002800100010000000000044004418
:1020D000005400540054006C002800280000000048
:1020E00000440028002800100010002800280044A8
:1020F00000000000004400440028002800100010E8
:102100000010001000000000007C00040008001017
:10211000001000200040007C0000000000180010AB
:102120000010001000100010001000100010001827
:10213000002000200010001000100010000800080F
:10214000000000000030001000100010001000100F
:10215000001000100010003000100028002800447B
:10216000000000000000000000000000000000006F
:10217000000000000000000000000000000000FE61
:10218000002000100000000000000000000000001F
:10219000000000000000000000380044003C004443
:1021A000004C003400000000004000400058006473
:1021B00000440044006400580000000000000000DB
:1021C0000038004400400040004400380000000097
:1021D000000400040034004C00440044004C00346F
:1021E000000000000000000000380044007C0040B7
:1021F0000044003800000000000C0010007C0010BB
:10220000001000100010001000000000000000008E
:102210000034004C00440044004C003400040078BA
:102220000040004000580064004400440044004462
:1022300000000000001000000070001000100010EE
:1022400000100010000000000010000000700010DE
:102250000010001000100010001000E000400040CE
:10226000004800500060005000480044000000009A
:10227000007000100010001000100010001000107E
:1022800000000000000000000078005400540054DA
:1022900000540054000000000000000000580064DA
:1022A000004400440044004400000000000000001E
:1022B000003800440044004400440038000000009E
:1022C000000000000058006400440044006400580E
:1022D00000400040000000000034004C0044004476
:1022E000004C0034000400040000000000580064AA
:1022F00000400040004000400000000000000000DE
:10230000003800440030000800440038000000009D
:10231000002000200078002000200020002000186D
:10232000000000000000000000440044004400449D
:10233000004C003400000000000000000044004495
:102340000028002800280010000000000000000005
:10235000005400540054006C0028002800000000C5
:102360000000000000440028001000100028004475
:102370000000000000000000004400440028002885
:10238000001000100010006000000000007C000839
:10239000001000200040007C000000000018001029
:1023A0000010001000200020001000100010001885
:1023B000001000100010001000100010001000109D
:1023C000001000100030001000100010000800087D
:1023D0000010001000100030000000000000007429
:1023E000004C00000000000000000000F8B50400F0
:1023F00022D004F13C05697821B9002028702046DC
:1024000000F01FFB2421697000F088F92068016842
:1024100041F4004101602068026822F40042026039
:1024200000F0B5FD01466068DFF8A022904205D2B9
:10243000DFF89C32994205D20120F2BDDFF8940208
:102440008142F9D32068DFF890324668B1FBF3F39C
:10245000B60943EA861646602668376A6068904285
:1024600006D34FF4967043434FF47A70B3FBF0F306
:102470005B1CBF0943EA87133362491E2368DE6988
:102480006768974206D27F0000F044F8042913D20F
:10249000042111E0A06820B907EB470700F03AF8E3
:1024A00005E01920474300F035F841F48041080564
:1024B0000CBF012141F40041DFF82C0206400E431D
:1024C000DE6122681368E169206A23F0C0030B43D0
:1024D000034313602268DFF8140293682169034004
:1024E000E0680B43034393602268D368A169606985
:1024F0001B0A41EA03230343D3602068016841F0CB
:1025000001010160002068602021697020630021C2
:10251000A970F2BDB1FBF7F1491CC1F30B01704783
:102520002DE9F84304460E46154600F0F4F804F190
:102530003C078046787820287CD1CDF8008000F0D8
:10254000CDF800F0DFF8002874D13878012871D078
:1025500000F073F821207870102100F0A7F800F047
:102560007CF8082918BF012904D081421CBF206BC8
:10257000122801D100F06DF9CDF800800022089DED
:102580002B4600F0BDF830B100F05FF94BD54FF4A9
:102590000070786047E02069B0F5804F08BF06F012
:1025A000FE060CD0F109206801F0060141F0F001AF
:1025B0000161434600F05EF8002834D1F6B220688D
:1025C000DFF82C11066143462A4600F056F8002831
:1025D00029D1009021684A69009289690091009A86
:1025E000208D002821D04246294600F03EF9A8B9A6
:1025F00000F050F8401E208521684A69530706D52F
:1026000080B220B1606A02780A6100F039F842466F
:102610002946204600F0C1F90028E1D07868042856
:1026200001D100F021F8012005E000F01DF800F0D4
:1026300045F800E00220BDE8F283012139702068EE
:102640000268D10703D4026842F0010202602068E8
:10265000016821F40061016070472085DFF8AC005B
:10266000E062E16A704772B62068016841F4007167
:10267000016070472A46DFF89810204600F01FB925
:10268000606A411C6162608D411E6185208D411E22
:1026900021857047606A226801781161606A411C77
:1026A0006162608D411E6185208D7047B970002088
:1026B00078606562A4F82A90608D70472020787059
:1026C0000021B9700020387070470000A186010019
:1026D00080841E0000093D0040420F0019230122A2
:1026E000DFF87C11704700000030FFFF007CFFFF27
:1026F00002000100884691469A4600F07DBC002207
:102700004FF00111204600F0B2B800000000FFFFBA
:10271000080001009046994600F06EBC20680268EF
:1027200052085200026070472DE9F84F04468B466C
:10273000FFF7E1FF04F13C070546787801262028E1
:102740007AD1DFF81C810095192301224146FFF759
:10275000D9FF002870D1387801286DD03E70FFF77E
:102760006EFF2420787000217960DFF8F800E062C5
:1027700000F06FF800955346FFF7C1FF38B92168A4
:102780000BF0FE00086100F037FC054611E000F098
:102790005CF844BF4FF40070786003204DE000F017
:1027A0002BFC401B824502D3BAF1000F01D1A020BF
:1027B00078702168486949697A784008890AA02AAE
:1027C00000F0010001F0010101D00843E7D0202012
:1027D000787021684869810720680ED400F0AAF853
:1027E000226850610095192301224146FFF78AFFB4
:1027F00000BB761C4E45BBD318E000F020F800204B
:102800000090192321684A69009201228969009188
:10281000414600980095FFF775FF010003D1202085
:10282000787000223A70080007D003E0202078700A
:1028300000213970012000E00220BDE8F28F01681C
:10284000024641F400711160704720680168CA05B2
:1028500070472068016841F4807101607047000092
:10286000020010000000FFFF414620466AE02DE90B
:10287000F041069F05460E4690461C4631022868E8
:10288000090E01290CBF40698069304080B2B1B2A5
:1028900088420CBF0120002040450DD114F1010FEA
:1028A000ECD000F0A9FBC01B844201D3002CE5D181
:1028B00000F065F8012000E00020BDE8F081F8B5E7
:1028C00005460E4614461F463102090E28680129A6
:1028D0001AD14169314089B2B2B291421AD04069ED
:1028E000410519D5286800F025F82A6850610021B3
:1028F00005F13C002963202242708170426842F059
:1029000004024260017013E08169314089B2B2B2C1
:102910009142E4D10020F2BD14F1010FD4D000F0B7
:102920006BFBC01B844201D3002CCDD100F027F8F3
:102930000120F2BD0268014642F400720A606FF4A1
:102940008060704770B505460C4616462868416998
:10295000080612D4284600F03DF808B1012070BDE9
:1029600014F1010FF2D000F047FB801B844201D329
:10297000002CEBD100F003F8F0E7002070BD002040
:102980002863202105F13C000022417082704168DB
:1029900041F0200141600270704770B505460C4659
:1029A000164628684169480712D4284600F012F8F4
:1029B00008B1012070BD14F1010FF2D000F01CFB32
:1029C000801B844201D3002CEBD1FFF7D8FFF0E746
:1029D000002070BD10B501684A6953050DD56FF42C
:1029E00080644C61002101633C302023437081707E
:1029F000436843F004034360017012F4806018BF21
:102A00000120C0B210BD0000464881B0016841F00D
:102A100001010160026802F001020092009942681F
:102A200042F080524260406800F080500090009870
:102A30003D48016821F0E06141F00071016001B0A2
:102A4000704718B585B004461022002101A800F097
:102A5000D9FA21683548814222D1324C216841F0AF
:102A6000080121604FF44071206800F008000090D8
:102A7000122200982E48019102920321049101A98B
:102A800000F0CAFA00F048F841F002010160606805
:102A900040F400106060606800F40010009000983E
:102AA00006B010BD18B585B0044610220021684656
:102AB00000F0A8FA21681F4881422BD119481C4C0C
:102AC000016841F480410160026802F4804204928E
:102AD0000499026842F0080202604021006800F098
:102AE00008000490022204980091019203210391AE
:102AF0002046694600F090FA802000210090019164
:102B000002912046694600F087FA00F005F841F08E
:102B10000401016006B010BD0348016841F0E061A6
:102B200070470000181002400400014000540040AB
:102B3000000C0140003801402DE9F843040016D094
:102B40002078DFF87064C10713D5706800F00C00BE
:102B5000042807D0706800F00C00082841D1706884
:102B6000C1033ED53068810303D56068002800F0BA
:102B700064812078DFF84C74810719D5706810F0F3
:102B80000C0F07D0706800F00C00082861D1706845
:102B9000C1035ED43068810703D52069012840F065
:102BA0004C813168606921F0F80141EAC00131606F
:102BB0002178080740F18180A069DFF80C14002813
:102BC00000F0A68001220A6000F016FA0546706A3D
:102BD000810763D400F010FA401B0228F7D90320C4
:102BE0002EE16068B0F5803F04D1306840F4803059
:102BF000306014E008B930680AE0B0F5A02F306802
:102C000006D140F480203060316841F4803105E025
:102C100020F480303060316821F4802131606068B8
:102C200058B100F0E9F9054630688103A1D400F0FD
:102C3000E3F9401B6528F7D3D1E700F0DDF905463D
:102C40003068810395D500F0D7F9401B6528F7D38C
:102C5000C5E72069A8B10121396000F0CDF905462A
:102C60003068810705D400F0C7F9401B0228F7D966
:102C7000B5E73068616920F0F80040EAC1003060D3
:102C800096E7386000F0B8F90546316888078FD5B7
:102C900000F0B2F9401B0228F7D9A0E7DFF81803CB
:102CA0000168C9084FF47A72B1FBF2F2009200BFDA
:102CB0000098411E00280091F9D1207841076ED577
:102CC000F0690025C10009D4F06940F08050F0613E
:102CD0000125F06900F0805000900098DFF8EC8248
:102CE000D8F80000C10520D4D8F8000040F4807066
:102CF000C8F8000000F080F98146D8F80000C1054E
:102D000013D400F079F9A0EB09006528F5D366E744
:102D1000086000F071F90546706A8107CDD500F0B2
:102D20006BF9401B0228F7D959E7E068012808D061
:102D300008B9306A09E00528306A06D140F004007D
:102D40003062306A40F0010005E040084000306227
:102D5000306A20F00400306241F28938E06860B1E6
:102D600000F04AF98146306A810713D400F044F933
:102D7000A0EB09004045F6D331E700F03DF981466C
:102D8000306A810706D500F037F9A0EB090040450D
:102D9000F6D324E71DB1F06920F08050F061E069BE
:102DA00000284CD0716801F00C01082938D00228A5
:102DB0002AD100F047F805463068810105D500F0BA
:102DC0001BF9401B0228F7D909E7206AB0F5803FBC
:102DD00005D17168A06821F4003101437160726807
:102DE000206A616A22F4741202430A43726001206D
:102DF00000F029F804463068810120D400F0FCF886
:102E0000001B0228F7D9EAE600F01CF804463068F7
:102E1000810114D500F0F0F8001B0228F7D9DEE696
:102E200001280AD07068226A00F48031914202BF02
:102E300000F47010616A884201D0012000E0002097
:102E4000BDE8F2830020386600F0D6B82DE9F041E5
:102E5000040088464ED05E4E00F077F802D200F0B3
:102E60006FF847D12068534D810712D5400703D52D
:102E7000696841F4E06169602078010703D56868FA
:102E800040F4605068606968A06821F0F001014377
:102E900069602178C80725D56068012802D12968B2
:102EA0008A0303E00228296802D18A0102D421E0C2
:102EB0008A071FD56968890840EA8100686000F0C8
:102EC0009BF807466868616800F00C00B0EB810F62
:102ED00008D000F091F8C01B41F289318842F1D34B
:102EE00003202BE0306800F00700804504D200F09A
:102EF00027F801D0012021E02078410705D56A6834
:102F0000E06822F4E06202436A602178080706D58F
:102F10006968206921F4605141EAC001696000F0EC
:102F200019F86A682B49244BC2F30312895CC84024
:102F300018602348006800F063F90020BDE8F081C4
:102F40003168C90848EAC1013160306800F0070003
:102F500040457047204919480A6802F00C03082BC5
:102F600000D0704710B500BF1EA4C2F38343D20344
:102F7000E35C08D5096858431EA3C1F340415A5C7D
:102F8000B0FBF2F010BD18461449484310BD0A4882
:102F9000114A006813681249C3F3022206E006488A
:102FA0000D4A006813680E49C3F3C222895CC84009
:102FB00070470000001002401400002000127A0048
:102FC0001000002000004242800442420070004095
:102FD00000200240D44200080410024000093D00D5
:102FE000F442000802030405060708090A0B0C0D49
:102FF0000E0F10100102000001484068704700BF2A
:103000000800002010B5044610460A460146204636
:1030100000F016F9204610BD2DE9F8474FF0000EDC
:1030200000246A4A6A4BDFF8AC814FF00F098246F0
:103030000DE0D7683840D06007E0C2F808C04D689E
:10304000AD02F6D5D0680743D7600EF1010E0F68C8
:1030500037FA0EF000F0AE80012000FA0EFC0CEA08
:1030600007076745F1D1486838B301281AD002280C
:103070001DD003282ED0112816D012281AD0564D54
:10308000A8421CBF554DA84217D0554DA8421CBFA1
:10309000544DA84211D0544DA8421CBF534DA842D4
:1030A0000BD018E0CC6816E0CC68241D13E0CC6887
:1030B000083410E0CC680C340DE0886808B90424AA
:1030C00009E0012819BF0824CAF814C00824CAF866
:1030D00010C000E00024B7F5807F03D250464FEACD
:1030E0008E0C05E0AEF108050AF104004FEA850CEC
:1030F000056809FA0CF6B54304FA0CF646EA050C25
:10310000C0F800C04868C0009FD5D8F8000040F063
:103110000100C8F80000D8F8005005F0010500953E
:103120004FEA8E0500984FEA9E0053F8206005F0A4
:103130000C0C09FA0CF526EA05052D4EB24508BF20
:1031400000260ED02B4EB24508BF012609D02A4ECC
:10315000B24508BF022604D0284EB2450CBF032654
:10316000042606FA0CF646EA050C43F820C0F8439C
:103170004D68ED0306D5D2F800C047EA0C0CC2F842
:1031800000C002E01568054015604D68D2F804C023
:10319000AD034CBF47EA0C0C00EA0C0CC2F804C0AB
:1031A0004D68D2F808C0ED024CBF47EA0C0C00EAAB
:1031B0000C0C42E7BDE8F1878068084018BF012089
:1031C000C0B2704702B909040161704700040140B0
:1031D00008000140181002400000111000001210F9
:1031E00000002110000022100000311000003210F9
:1031F00000080140000C0140001001400014014093
:1032000038B50D4D0D4B2A7804464FF47A71186885
:10321000B1FBF2F2B0FBF2F000F07DF850B9102CE7
:1032200008D2002221464FF0FF3000F057F8AC6082
:10323000002032BD012032BD080000201400002013
:1032400062F30F2262F31F42401810F0030308D00C
:10325000C91A1FD3DB0748BF00F8012D28BF20F88B
:10326000022D130030B414461546103928BF20E94A
:103270003C00FAD8490728BF20E90C0048BF40F8B5
:10328000042D890028BF20F8022D48BF00F8012D29
:1032900030BC7047C91818BF00F8012DCB0728BFF4
:1032A00000F8012D704700000901020002D42248F5
:1032B00081547047214B02F00F021A4402F8041C9B
:1032C00070471F4B19684FF6FF020002114000F4CF
:1032D000E06008431B4908431860704770B5184BFD
:1032E0001C68C4F302230124C3F10705052D2EBF7A
:1032F0000F2504FA05F56D1E1E1D072E34BF002391
:10330000DB1E2940994004FA03F3BDE870405B1EC0
:103310001A401143C8E7401EB0F1807F01D301205D
:1033200070470949094A48600023F02010708B60FB
:10333000072008600020704700E400E018ED00E07E
:103340000CED00E00000FA0510E000E023ED00E0E5
:10335000F0B585B000F01CFA00F0DEF868460021F8
:1033600000220023002480E81E00DFF89003DFF82D
:103370009043016841F020010160026802F02002E0
:1033800004920499026842F004020260036803F0A8
:10339000040304930499026842F0080202600022C8
:1033A000006800F008000490F021049800F0B8F9DB
:1033B000F021009101220192002102910222039248
:1033C00069462046FFF728FE4FF4E0600021009098
:1033D0000191029120466946FFF71EFEC94CCA487A
:1033E000CA496060A1600020E06000214FF4804085
:1033F00060612161A161E16121626162201DFEF7CE
:10340000F5FF08B100F094F9C148A0654FF41651DA
:10341000E165002020666066A0660C212067606779
:10342000E16604F1580000F0C5F908B100F080F938
:1034300000F005FB00F06CF8DFF8D852BDA00122C7
:10344000294600F004FC082100F063F80122294617
:10345000BBA000F0FCFB142100F05BF80122294620
:10346000BBA000F0F4FB1E2100F053F80122294616
:10347000BDA000F0ECFB282100F04BF8012229460A
:10348000BFA000F0E4FB00F04EFB4FF4FA6000F048
:1034900025FC00F0EDFB01204021019000918023EC
:1034A0009D4A0021002000F08FFA00F03CFB4FF411
:1034B000FA6000F013FC00F0DBFB00F029F804F1E7
:1034C0009C068DA700F04FF82070A0B1012229467C
:1034D00000F077FB00F027FB6078227808306070FE
:1034E0003946304600F00EFC0A230122314604F131
:1034F000580000F09CF960788028E3DB00216170BF
:103500000020A1780A31A170C9B200F055FBD9E7BB
:103510000021002000F050BB00B58FB0282105A885
:1035200000F010FC1421684600F00CFC022101227E
:1035300005910992102100220A910C9205A8FFF72B
:10354000FBFA08B100F0F4F80F200090002101917F
:103550000291039104916846FFF778FC08B100F0EE
:10356000E7F80FB000BD10B5654C002200F0D7F8A9
:103570000122202100F0D4F80122402100F0D0F8EF
:103580000122802100F0CCF800F0CDF828B900F03D
:10359000CAF80028FBD0312010BD4FF4007100F0B4
:1035A000C4F838B94FF4007100F0BFF80028F9D022
:1035B000322010BD4FF4806100F0B7F838B94FF4F5
:1035C000806100F0B2F80028F9D0332010BD00F07F
:1035D000A5F80022202100F0A3F80122402100F0EC
:1035E0009FF80122802100F09BF800F09CF828B998
:1035F00000F099F80028FBD0342010BD4FF4007182
:1036000000F093F838B94FF4007100F08EF80028FC
:10361000F9D0352010BD4FF4806100F086F838B93C
:103620004FF4806100F081F80028F9D0362010BDF9
:1036300000F074F80122202100F072F800224021ED
:1036400000F06EF80122802100F06AF800F06BF8BB
:1036500028B900F068F80028FBD0372010BD4FF4DF
:10366000007100F062F838B94FF4007100F05DF8B5
:103670000028F9D0382010BD4FF4806100F055F8D3
:1036800038B94FF4806100F050F80028F9D03920A3
:1036900010BD00F043F80122202100F041F8012282
:1036A000402100F03DF80022802100F039F800F0C0
:1036B0003AF828B900F037F80028FBD0412010BDB7
:1036C0004FF4007100F031F838B94FF4007100F098
:1036D0002CF80028F9D0302010BD4FF4806100F0A4
:1036E00024F838B94FF4806100F01FF80028F9D0B1
:1036F000422010BD002010BD2563000018100240BC
:10370000000801405004002000540040801A0600C8
:103710000038014000000020883D000801221021EF
:103720002046FFF74FBD4FF480712046FFF744BDA0
:1037300072B6FEE741626F7574204D6500000000AF
:1037400048656C6C6F20576F726C6421000000003C
:1037500042793A20536F6865696C204E61646572E6
:103760006E657A6861640000456C656374726F6EA3
:1037700069637320456E67696E65657200000000BD
:103780007777772E736F6833696C2E636F6D0000E7
:1037900080B50748016841F0100101600320FFF780
:1037A00090FD0F20FFF72CFDFFF72EF9002002BD42
:1037B0000020024038B5040001D1012032BD00F0E4
:1037C00028F808B900F016F800F019F800F025F80C
:1037D000FFE7416100F001F832BD2068C16841F4A3
:1037E0000051C16000206860202169702020A8700D
:1037F00000207047002129702046FFF753B924208C
:1038000068702068C16821F40051C160204600F052
:1038100099B804F13C05687870472068016921F483
:10382000904101612068416921F02A0170472DE92A
:10383000F843054605F13C060C46707820281746EB
:10384000994649D10CB1380001D1012045E03078CA
:10385000012841D001213170002070602122727056
:10386000FFF7CAFBAF848046EF84A868B0F5805F9D
:1038700004BF286900280EBF2746204600270021E4
:10388000317004460EE014F8012B426007E028680E
:10389000002CF8D137F8021BC1F308014160E88C15
:1038A000411EE9844346E88CCDF80090002807D0FB
:1038B00000228021284600F012F80028E7D005E019
:1038C00000224021284600F00AF808B1032004E055
:1038D00020207070002000E00220BDE8F2832DE976
:1038E000F041069C05460E4690461F462868016832
:1038F0003140B1420CBF01200020404519D114F1E4
:10390000010FF3D024B1FFF777FBC01B8442EDD247
:103910002868C16821F4D071C160202200F00CF841
:1039200005F13C00202141708270002101700320CC
:1039300000E00020BDE8F08128684169490849009D
:103940004161704710B5044622681169E06821F4AE
:10395000405101431161D3681949A0680B402169A6
:10396000034360690B430343D3605169A06921F4A9
:1039700040710143516113498A4202D1FFF70FFBA5
:1039800001E0FFF704FB6268192148439200B0FB95
:10399000F2F16423B1FBF3F26FF0630000FB02115C
:1039A00009013231B1FBF3F000F0F00101EB02113B
:1039B000226800F00F004018906010BD0000000069
:1039C000F3E9FFFF003801402DE9F84F8246DF1D83
:1039D000B81007EB5077DDF82CB07F0300250C46BC
:1039E00090463F14A94603E0034609F10109641C0F
:1039F000BDF92800814520DA0026ADF8003008E046
:103A0000B01006EB5071C91007FB091118F80150EE
:103A100007E0BDF900008642E6DA16F0070FEFD0A6
:103A20006D00280607D506EB0A005FFA8BF2A1B2FB
:103A300080B200F09BF8761CEBE7BDE8F18F80B513
:103A400000F01DF944F6206301227821DFF880029E
:103A5000FEF76AFE08B1002002BDAE2200F060F859
:103A6000202200F05DF8102200F05AF8B02200F099
:103A700057F8C82200F054F800F051F8102200F076
:103A80004FF8402200F04CF8812200F049F8FF2264
:103A900000F046F8A12200F043F8A62200F040F81A
:103AA000A82200F03DF83F2200F03AF8A42200F0EE
:103AB00037F8D32200F034F800F031F8D52200F0C6
:103AC0002FF8F02200F02CF8D92200F029F8222259
:103AD00000F026F8DA2200F023F8122200F020F895
:103AE000DB2200F01DF8202200F01AF88D2200F0F1
:103AF00017F8142200F014F8AF2200F011F82E226B
:103B000000F00EF8002000F027F800F00CF8DFF8C5
:103B1000C4010021012301604371012002BD002284
:103B200000217820C2E038B50024DFF8AC5104F160
:103B3000B002D2B2FFF7F4FFFFF7F1FF1022FFF758
:103B4000EFFF802305EBC4124021782000F098F8A5
:103B5000641C082CEBDB31BD00280CBF0022FF22C7
:103B60004FF48061DFF8700100F0F0B8802800DBCE
:103B7000704730B540290EDACB08DFF85851DFF82E
:103B8000584100EBC3102B7933B13AB100F00AF879
:103B900022EA0101215430BD012AF7D100F002F8D8
:103BA0001143F7E700254D1905F0F805225C0123C4
:103BB000491B03FA01F17047DFF81821108051808A
:103BC00070472DE9F84F0E46DFF808413178258817
:103BD00091464A19802ABFBF628871788A18402AA4
:103BE000A8BF002031DA4FF000088DF8000001E096
:103BF00008F101087078804522D29DF800107268A3
:103C00006788203900FB018032F810A04FF0000BCC
:103C1000474404E0B9F101029241D20F09E0307843
:103C20008345E5D20AFA0BF109040BEB0500F1D547
:103C30004A46B9B280B2FFF799FF0BF1010BEEE7EC
:103C4000307845199DF800002580BDE8F28F70B5E9
:103C500004460D46164600E0641C207830B132461A
:103C60002946FFF7AEFF21788842F5D0207870BD55
:103C700080B50020FFF770FFBDE8014053E77047B3
:103C800030B5C1B08DF80410002104E001AD545CE2
:103C90000D44491C6C709942F8DB0A245B1C0146F8
:103CA00000949BB200F00EF841B030BD1CB58DF809
:103CB00004108DF805200A2401460094022300F028
:103CC00001F813BD01AA0248FEF72ABC000000005B
:103CD00054040020F00400205000002038B50446B1
:103CE000FFF78AF914F1010F054602D0044908785C
:103CF0000419FFF781F9401BA042FAD331BD00BF80
:103D0000080000200CB430B583B00A4606A9029121
:103D1000044600250194009502AB01A908487844A7
:103D20001E30FCF7E6F9019A157000284EBF0446D4
:103D30000198041B204603B030BC5DF80CFB00BFAB
:103D400097D2FFFF002200F005B8000062F30F22B7
:103D500062F31F4200B500BF130096469446103927
:103D600028BFA0E80C50FAD85FEA417C28BF0CC0FD
:103D700048BF40F8042BC90728BF20F8022B48BFD2
:103D800000F8012B00BD0000000000000000000052
:103D9000000000000000000000000000000000180B
:103DA000700000000000000000000000000003F8A8
:103DB0007F000000000000000000000000001FF86D
:103DC0007FE0000000000000000000000000FFF89D
:103DD0007FFC000000000000000000000001FFF870
:103DE0007FFE000000000000000000000007FFF858
:103DF0007FFF80000000000000000000001FFFF8AF
:103E00007FFFC0000000000000000000003FFFF83E
:103E10007FFFE0000000000000000000007FFFC006
:103E20000FFFF800000000000000000000FFFC0091
:103E300001FFF800000000000000000001FFF0009A
:103E4000007FF800000000000000000003FFC00039
:103E5000001FE000000000000000000003FF003829
:103E60000007C000000000000000000007FF01F88C
:103E70000003800000000000000000000FFC07F8B5
:103E80000000000000000000000000000FFC1FF810
:103E90000000000000000000000000001FF03FF8DC
:103EA0000000000000000000000000003FE07FF87C
:103EB0000000000000000000000000007FE0FFF8AC
:103EC0000000000000000000000000007FC1FFC0F3
:103ED0000000000000000000000000007FC3FF00A1
:103EE0000000000000000000000000007F83FE00D2
:103EF000000000000000000000000000FF83F80048
:103F0000000000000000000000000000FF87F81F14
:103F1000E00000000000000000000000FF0FF03F84
:103F2000F00000000000000000000001FF0FE0FFB3
:103F3000F80000000000000000000001FE1FE1FF8B
:103F4000FC0000000000000000000001FE1FC1FF97
:103F5000FFFFFFFE0000000000000001FE1FC1F88F
:103F60007FFFFFFE0000000000000000000003F0E3
:103F70007FFFFFFE0000000000000000000003F0D3
:103F80003FFFFFFE0000000000000000000003F003
:103F90003FFFFFFE0000000000000000000003F0F3
:103FA0007FFFFFFE0000000000000001FE0001F89E
:103FB0007FFFFFFE0000000000000001FE0001FF87
:103FC000FC0003FE0000000000000001FF0001FFF4
:103FD000FC0003FE0000000000000001FF0000FFE5
:103FE000FC0003FE0000000000000001FF00003F95
:103FF000F00000000000000000000000FF80001F33
:10400000E00000000000000000000000FF80000051
:104010000000000000000000000000007F800000A1
:10402000000007F800000000000000007FC0000052
:1040300000000FF800000000000000007FC000003A
:1040400000001FF000000000000000007FE0000002
:1040500000001FF000000000000000003FE0000032
:1040600000003FF000000000000000001FF0000012
:1040700000007FE000000000000000000FFC0000D6
:104080000000FFC000000000000000000FFC000066
:104090000000FFC000000000000000000FFF000053
:1040A0000003FF80000000000000000007FF800008
:1040B0000007FF00000000000000000003FFC00038
:1040C000001FFE00000000000000000001FFF000E3
:1040D000003FFE00000000000000000000FFFE00A6
:1040E00000FFF8000000000000000000007FFFC09B
:1040F0000FFFF8000000000000000000003FFFF884
:104100007FFFE0000000000000000000001FFFF83B
:104110007FFFC00000000000000000000007FFF863
:104120007FFF000000000000000000000003FFF817
:104130007FFE000000000000000000000000FFF80B
:104140007FF80000000000000000000000003FF8C1
:104150007FE000000000000000000000000007F801
:104160007F00000000000000000000000000003898
:1041700060000000000000000000000000000000DF
:104180000000000000000000070A0000801C00087A
:104190000100000000000000100000000024F400F6
:1041A000461300084613000846130008461300088B
:1041B000461300084613000846130008FFFFFFFFE0
:1041C000FFFFFFFF321100084613000846130008E6
:1041D000FFFFFFFFFFFF000030B4002512E050F8A2
:1041E000042BD30744BF4A44521E091F042942F836
:1041F000045BFAD213468C0744BF15809B1CC90789
:1042000048BF1D7050F8041B0029E8D130BC70472E
:1042100010B5074979441831064C7C44163404E043
:104220000A68081D114488470146A142F8D110BD13
:104230000800000028000000A1FFFFFFAC04000000
:1042400050000020000000004FCDFFFF5000000094
:1042500038FFFFFF000000200000000000F00DF814
:10426000002801D0FFF7D4FFAFF300800020AFF3A8
:104270000080FFF76DF800F002F80120704700F0B1
:1042800001B8000007463846FDF7F0FCFBE70000E8
:104290000548014603B4684680F30988AFF30080FF
:1042A000AFF30080FFF7DAFFA5EDF5FEFEE7FEE7CE
:1042B000FEE7FEE7FEE770477047704700F000B882
:1042C00002494A68087882184A607047080000204E
:1042D000704700000000000000000000010203041D
:1042E000060708090148804701480047D1420008F5
:1042F000914200080000000001020304FFF7FEBF26
:10430000FFF7FEBFFFF7FEBFFFF7FEBFFFF7FEBFE1
:10431000FFF7FEBFFFF7FEBFFFF7FEBFFFF7FEBFD1
:10432000FFF7FEBFFFF7FEBFFFF7FEBFFFF7FEBFC1
:10433000FFF7FEBFFFF7FEBFFFF7FEBFFFF7FEBFB1
:10434000FFF7FEBFFFF7FEBFFFF7FEBFFFF7FEBFA1
:10435000FFF7FEBFFFF7FEBFFFF7FEBFFFF7FEBF91
:10436000FFF7FEBFFFF7FEBFFFF7FEBFFFF7FEBF81
:10437000FFF7FEBFFFF7FEBFFFF7FEBFFFF7FEBF71
:10438000FFF7FEBFFFF7FEBFFFF7FEBFFFF7FEBF61
:10439000FFF7FEBFFFF7FEBFFFF7FEBFFFF7FEBF51
:0843A000FFF7FEBFFFF7FEBFAF
:04000005080042911C
:00000001FF
