:020000040800F2
:1000000010040020ED0B0008AD0B0008B50B000834
:10001000B70B0008B90B0008BB0B0008000000007C
:10002000000000000000000000000000BD0B000800
:10003000BF0B000800000000C10B0008C30B000844
:100040000D0C0008110C0008150C0008190C000814
:100050001D0C0008210C0008250C0008290C0008C4
:100060002D0C0008310C0008350C0008390C000874
:100070003D0C0008410C0008450C0008490C000824
:100080004D0C0008510C0008550C0008590C0008D4
:100090005D0C0008610C0008650C0008690C000884
:1000A0006D0C0008710C0008750C0008790C000834
:1000B0007D0C0008810C0008850C0008890C0008E4
:1000C0008D0C0008910C0008950C0008990C000894
:1000D0009D0C0008A10C0008A50C0008A90C000844
:1000E000AD0C0008B10C0008B50C0008B90C0008F4
:1000F000BD0C0008C10C0008C50C0008C90C0008A4
:10010000CD0C0008D10C0008D50C0008D90C000853
:10011000DD0C0008E10C0008E50C0008E90C000803
:10012000ED0C0008F10C0008F50C0008F90C0008B3
:100130002DE9F843040016D02078DFF86864C10781
:1001400013D5706800F00C00042807D0706800F028
:100150000C00082841D17068C1033ED53068810386
:1001600003D56068002800F064812078DFF84474CB
:10017000810719D5706810F00C0F07D0706800F077
:100180000C00082861D17068C1035ED43068810713
:1001900003D52069012840F04C813168606921F065
:1001A000F80141EAC00131602178080740F18180FF
:1001B000A069DFF80414002800F0A68001220A607C
:1001C00000F028FA0546706A810763D400F022FA2D
:1001D000401B0228F7D903202EE16068B0F5803F6C
:1001E00004D1306840F48030306014E008B93068E1
:1001F0000AE0B0F5A02F306806D140F480203060CE
:10020000316841F4803105E020F48030306031689D
:1002100021F480213160606858B100F0FBF9054697
:1002200030688103A1D400F0F5F9401B6528F7D3AD
:10023000D1E700F0EFF905463068810395D500F06D
:10024000E9F9401B6528F7D3C5E72069A8B101216A
:10025000396000F0DFF905463068810705D400F009
:10026000D9F9401B0228F7D9B5E73068616920F059
:10027000F80040EAC100306096E7386000F0CAF943
:100280000546316888078FD500F0C4F9401B022865
:10029000F7D9A0E7DFF810030168C9084FF47A72B4
:1002A000B1FBF2F2009200BF0098411E00280091BD
:1002B000F9D1207841076ED5F0690025C10009D435
:1002C000F06940F08050F0610125F06900F0805045
:1002D00000900098DFF8E482D8F80000C10520D42F
:1002E000D8F8000040F48070C8F8000000F092F9DF
:1002F0008146D8F80000C10513D400F08BF9A0EBBB
:1003000009006528F5D366E7086000F083F9054623
:10031000706A8107CDD500F07DF9401B0228F7D91E
:1003200059E7E068012808D008B9306A09E00528D3
:10033000306A06D140F004003062306A40F00100BB
:1003400005E0400840003062306A20F0040030626E
:1003500041F28938E06860B100F05CF98146306AAA
:10036000810713D400F056F9A0EB09004045F6D3FD
:1003700031E700F04FF98146306A810706D500F079
:1003800049F9A0EB09004045F6D324E71DB1F06917
:1003900020F08050F061E06900284CD0716801F0D5
:1003A0000C01082938D002282AD100F047F8054668
:1003B0003068810105D500F02DF9401B0228F7D9DE
:1003C00009E7206AB0F5803F05D17168A06821F483
:1003D0000031014371607268206A616A22F474120C
:1003E00002430A437260012000F029F80446306895
:1003F000810120D400F00EF9001B0228F7D9EAE6AB
:1004000000F01CF804463068810114D500F002F9B0
:10041000001B0228F7D9DEE601280AD07068226A9C
:1004200000F48031914202BF00F47010616A88428A
:1004300001D0012000E00020BDE8F28300203866F2
:1004400000F0E8B82DE9F041040088464ED05C4E3B
:1004500000F077F802D200F06FF847D12068514DD4
:10046000810712D5400703D5696841F4E0616960EE
:100470002078010703D5686840F4605068606968B7
:10048000A06821F0F001014369602178C80725D5F3
:100490006068012802D129688A0303E002282968DC
:1004A00002D18A0102D421E08A071FD56968890830
:1004B00040EA8100686000F0ADF80746686861684E
:1004C00000F00C00B0EB810F08D000F0A3F8C01BC7
:1004D00041F289318842F1D303202BE0306800F0EB
:1004E0000700804504D200F027F801D0012021E068
:1004F0002078410705D56A68E06822F4E06202438B
:100500006A602178080706D56968206921F460517E
:1005100041EAC001696000F01DF86A682949224B70
:10052000C2F30312895CC84018602148006800F0DB
:1005300077F80020BDE8F0813168C90848EAC101B8
:100540003160306800F00700404570471F490120C6
:10055000086070471C4915480A6802F00C03082B14
:1005600000D0704710B500BF1BA4C2F38343D20371
:10057000E35C08D5096858431BA3C1F340415A5CAA
:10058000B0FBF2F010BD18461149484310BD10B53C
:10059000104C2068010603D500F062F88020A0709E
:1005A00010BD0000001002400C00002000127A0074
:1005B00008000020000042428004424200700040D7
:1005C00000200240DC0B0008041002404C004242B4
:1005D00000093D000810024002030405060708094F
:1005E0000A0B0C0D0E0F101001020EE0026843689A
:1005F000024408305FEAC37C44BF4B445B1E52F8A0
:1006000004CB43F804CB091FF9D150F8041B00298F
:10061000ECD1704701484068704700BF00000020DF
:1006200038B50D4D0D4B2A7804464FF47A71186891
:10063000B1FBF2F2B0FBF2F000F04BF850B9102C25
:1006400008D2002221464FF0FF3000F025F8AC60C0
:10065000002032BD012032BD000000200C0000202F
:10066000704700000901020002D4224881547047FB
:10067000214B02F00F021A4402F8041C70471F4B72
:1006800019684FF6FF020002114000F4E0600843D1
:100690001B4908431860704770B5184B1C68C4F3B9
:1006A00002230124C3F10705052D2EBF0F2504FAEF
:1006B00005F56D1E1E1D072E34BF0023DB1E2940CD
:1006C000994004FA03F3BDE870405B1E1A401143E1
:1006D000C8E7401EB0F1807F01D30120704709496F
:1006E000094A48600023F02010708B6007200860E2
:1006F0000020704700E400E018ED00E00CED00E0A1
:100700000000FA0510E000E023ED00E02DE9F847D5
:100710004FF0000E0024704A704BDFF8C4814FF098
:100720000F0982460DE0D7683840D06007E0C2F874
:1007300008C04D68AD02F6D5D0680743D7600EF10A
:10074000010E0F6837FA0EF000F0B880012000FAB1
:100750000EFC0CEA07076745F1D1486838B3012859
:100760001AD002281DD003282ED0112816D0122806
:100770001AD05C4DA8421CBF5B4DA84217D05B4D00
:10078000A8421CBF5A4DA84211D05A4DA8421CBFC6
:10079000594DA8420BD018E0CC6816E0CC68241D57
:1007A00013E0CC68083410E0CC680C340DE08868A5
:1007B00008B9042409E0012819BF0824CAF814C0A4
:1007C0000824CAF810C000E00024B7F5807F03D2E7
:1007D00050464FEA8E0C05E0AEF108050AF1040020
:1007E0004FEA850C056809FA0CF6B54304FA0CF6D5
:1007F00046EA050CC0F800C04868C0009FD5D8F88C
:10080000000040F00100C8F80000D8F8005005F0E2
:10081000010500954FEA8E0500984FEA9E0053F8B7
:10082000206005F00C0C09FA0CF526EA0505334E9C
:10083000B24508BF002618D0314EB24508BF012688
:1008400013D0304EB24508BF02260ED02E4EB24510
:1008500008BF032609D02D4EB24508BF042604D098
:100860002B4EB2450CBF0526062606FA0CF646EAC4
:10087000050C43F820C0F8434D68ED0306D5D2F8C7
:1008800000C047EA0C0CC2F800C002E01568054041
:1008900015604D68D2F804C0AD034CBF47EA0C0C9C
:1008A00000EA0C0CC2F804C04D68D2F808C0ED0292
:1008B0004CBF47EA0C0C00EA0C0C38E7BDE8F187A6
:1008C00002B9090401617047C26801EA0203914359
:1008D00041EA034101617047000401400800014002
:1008E000181002400000111000001210000021102A
:1008F00000002210000031100000321000080140FA
:10090000000C01400010014000140140001801409B
:10091000001C014018B585B000F072F800F040F8F6
:100920001022002101A800F07DF81B481B4C016833
:1009300041F020010160026802F02002009200995B
:10094000026842F010020260036803F01003009393
:100950000099026842F0040202600022006800F080
:1009600004000090012100982046FFF7A9FF012113
:1009700001910291022200210391049201A92046D3
:10098000FFF7C4FE01212046FFF79EFF4FF4FA70E7
:1009900000F052F8F6E70000181002400010014085
:1009A00000B58FB02822002105A800F03BF81422E2
:1009B0000021684600F036F8012005904FF4A02190
:1009C000002206910C9205A8FFF7B2FB08B100F0D7
:1009D00015F8012101910F204FF480610090002251
:1009E00003910292049200216846FFF72BFD08B1A3
:1009F00000F004F8FFF7AAFD0FB000BD72B6FEE7E5
:100A000080B50748016841F0100101600320FFF73D
:100A100036FE0F20FFF704FE00F022F8002002BD92
:100A20000020024010B5044610460A460146204602
:100A300000F038F8204610BD38B50446FFF7EAFD4F
:100A400014F1010F054602D0044908780419FFF794
:100A5000E1FD401BA042FAD331BD00BF00000020E1
:100A60000E4881B0016841F001010160026802F0A6
:100A7000010200920099426842F080524260406850
:100A800000F08050009000980548016821F0E06176
:100A900041F00071016001B0704700BF18100240C2
:100AA0000400014062F30F2262F31F42401810F06D
:100AB000030308D0C91A1FD3DB0748BF00F8012D74
:100AC00028BF20F8022D130030B414461546103903
:100AD00028BF20E93C00FAD8490728BF20E90C00CC
:100AE00048BF40F8042D890028BF20F8022D48BFD8
:100AF00000F8012D30BC7047C91818BF00F8012D4F
:100B0000CB0728BF00F8012D7047000010B507493A
:100B100079441831064C7C44163404E00A68081DF8
:100B2000114488470146A142F8D110BD08000000D9
:100B300018000000B7FAFFFF10000000C00000001E
:100B4000000000200000000000F00DF8002801D097
:100B5000FFF7DCFFAFF300800020AFF30080FFF76A
:100B6000D9FE00F002F80120704700F001B8000043
:100B70000746384600F002F8FBE7000080B5AFF307
:100B80000080024A11001820ABBEFBE726000200DD
:100B90000548014603B4684680F30988AFF3008036
:100BA000AFF30080FFF7D0FFA5EDF5FE80B5FFF7AE
:100BB000EEFCFEE7FEE7FEE7FEE7FEE77047704764
:100BC000704700F001B8000002494A6808788218AE
:100BD0004A607047000000207047000000000000DD
:100BE00000000000010203040607080901488047CD
:100BF00001480047D90B0008910B000801000000D4
:100C000000000000100000000024F400FFF7FEBF09
:100C1000FFF7FEBFFFF7FEBFFFF7FEBFFFF7FEBF08
:100C2000FFF7FEBFFFF7FEBFFFF7FEBFFFF7FEBFF8
:100C3000FFF7FEBFFFF7FEBFFFF7FEBFFFF7FEBFE8
:100C4000FFF7FEBFFFF7FEBFFFF7FEBFFFF7FEBFD8
:100C5000FFF7FEBFFFF7FEBFFFF7FEBFFFF7FEBFC8
:100C6000FFF7FEBFFFF7FEBFFFF7FEBFFFF7FEBFB8
:100C7000FFF7FEBFFFF7FEBFFFF7FEBFFFF7FEBFA8
:100C8000FFF7FEBFFFF7FEBFFFF7FEBFFFF7FEBF98
:100C9000FFF7FEBFFFF7FEBFFFF7FEBFFFF7FEBF88
:100CA000FFF7FEBFFFF7FEBFFFF7FEBFFFF7FEBF78
:100CB000FFF7FEBFFFF7FEBFFFF7FEBFFFF7FEBF68
:100CC000FFF7FEBFFFF7FEBFFFF7FEBFFFF7FEBF58
:100CD000FFF7FEBFFFF7FEBFFFF7FEBFFFF7FEBF48
:100CE000FFF7FEBFFFF7FEBFFFF7FEBFFFF7FEBF38
:0C0CF000FFF7FEBFFFF7FEBFFFF7FEBFDF
:0400000508000B9153
:00000001FF
