:020000040800F2
:1000000010040020E10B0008A90B0008AB0B00084E
:10001000AD0B0008AF0B0008B10B0008000000009A
:10002000000000000000000000000000B30B00080A
:10003000B50B000800000000B70B0008B90B000862
:10004000010C0008050C0008090C00080D0C000844
:10005000110C0008150C0008190C00081D0C0008F4
:10006000210C0008250C0008290C00082D0C0008A4
:10007000310C0008350C0008390C00083D0C000854
:10008000410C0008450C0008490C00084D0C000804
:10009000510C0008550C0008590C00085D0C0008B4
:1000A000610C0008650C0008690C00086D0C000864
:1000B000710C0008750C0008790C00087D0C000814
:1000C000810C0008850C0008890C00088D0C0008C4
:1000D000910C0008950C0008990C00089D0C000874
:1000E000A10C0008A50C0008A90C0008AD0C000824
:1000F000B10C0008B50C0008B90C0008BD0C0008D4
:10010000C10C0008C50C0008C90C0008CD0C000883
:10011000D10C0008D50C0008D90C0008DD0C000833
:10012000E10C0008E50C0008E90C0008ED0C0008E3
:100130002DE9F843040016D02078DFF84C64C1079D
:1001400013D5706800F00C00042807D0706800F028
:100150000C00082841D17068C1033ED53068810386
:1001600003D56068002800F064812078DFF82874E7
:10017000810719D5706810F00C0F07D0706800F077
:100180000C00082861D17068C1035ED43068810713
:1001900003D52069012840F04C813168606921F065
:1001A000F80141EAC00131602178080740F18180FF
:1001B000A069DFF8E813002800F0A68001220A6099
:1001C00000F016FA0546706A810763D400F010FA51
:1001D000401B0228F7D903202EE16068B0F5803F6C
:1001E00004D1306840F48030306014E008B93068E1
:1001F0000AE0B0F5A02F306806D140F480203060CE
:10020000316841F4803105E020F48030306031689D
:1002100021F480213160606858B100F0E9F90546A9
:1002200030688103A1D400F0E3F9401B6528F7D3BF
:10023000D1E700F0DDF905463068810395D500F07F
:10024000D7F9401B6528F7D3C5E72069A8B101217C
:10025000396000F0CDF905463068810705D400F01B
:10026000C7F9401B0228F7D9B5E73068616920F06B
:10027000F80040EAC100306096E7386000F0B8F955
:100280000546316888078FD500F0B2F9401B022877
:10029000F7D9A0E7DFF8F4020168C9084FF47A72D1
:1002A000B1FBF2F2009200BF0098411E00280091BD
:1002B000F9D1207841076ED5F0690025C10009D435
:1002C000F06940F08050F0610125F06900F0805045
:1002D00000900098DFF8C882D8F80000C10520D44B
:1002E000D8F8000040F48070C8F8000000F080F9F1
:1002F0008146D8F80000C10513D400F079F9A0EBCD
:1003000009006528F5D366E7086000F071F9054635
:10031000706A8107CDD500F06BF9401B0228F7D930
:1003200059E7E068012808D008B9306A09E00528D3
:10033000306A06D140F004003062306A40F00100BB
:1003400005E0400840003062306A20F0040030626E
:1003500041F28938E06860B100F04AF98146306ABC
:10036000810713D400F044F9A0EB09004045F6D30F
:1003700031E700F03DF98146306A810706D500F08B
:1003800037F9A0EB09004045F6D324E71DB1F06929
:1003900020F08050F061E06900284CD0716801F0D5
:1003A0000C01082938D002282AD100F047F8054668
:1003B0003068810105D500F01BF9401B0228F7D9F0
:1003C00009E7206AB0F5803F05D17168A06821F483
:1003D0000031014371607268206A616A22F474120C
:1003E00002430A437260012000F029F80446306895
:1003F000810120D400F0FCF8001B0228F7D9EAE6BE
:1004000000F01CF804463068810114D500F0F0F8C3
:10041000001B0228F7D9DEE601280AD07068226A9C
:1004200000F48031914202BF00F47010616A88428A
:1004300001D0012000E00020BDE8F28300203866F2
:1004400000F0D6B82DE9F041040088464ED0554E54
:1004500000F077F802D200F06FF847D120684A4DDB
:10046000810712D5400703D5696841F4E0616960EE
:100470002078010703D5686840F4605068606968B7
:10048000A06821F0F001014369602178C80725D5F3
:100490006068012802D129688A0303E002282968DC
:1004A00002D18A0102D421E08A071FD56968890830
:1004B00040EA8100686000F09BF807466868616860
:1004C00000F00C00B0EB810F08D000F091F8C01BD9
:1004D00041F289318842F1D303202BE0306800F0EB
:1004E0000700804504D200F027F801D0012021E068
:1004F0002078410705D56A68E06822F4E06202438B
:100500006A602178080706D56968206921F460517E
:1005100041EAC001696000F019F86A6822491B4B82
:10052000C2F30312895CC84018601A48006800F0E2
:1005300065F80020BDE8F0813168C90848EAC101CA
:100540003160306800F00700404570471749104897
:100550000A6802F00C03082B00D0704710B500BFEA
:1005600014A4C2F38343D203E35C08D5096858435B
:1005700014A3C1F340415A5CB0FBF2F010BD184621
:100580000B49484310BD0000001002400C00002041
:1005900000127A000800002000004242800442421B
:1005A0000070004000200240D00B00080410024000
:1005B00000093D0002030405060708090A0B0C0D9B
:1005C0000E0F101001020EE002684368024408306A
:1005D0005FEAC37C44BF4B445B1E52F804CB43F834
:1005E00004CB091FF9D150F8041B0029ECD1704746
:1005F00001484068704700BF0000002038B50D4D2D
:100600000D4B2A7804464FF47A711868B1FBF2F268
:10061000B0FBF2F000F049F850B9102C08D20022DB
:1006200021464FF0FF3000F023F8AC60002032BDCF
:10063000012032BD000000200C0000200901020052
:1006400002D4224881547047214B02F00F021A4411
:1006500002F8041C70471F4B19684FF6FF02000296
:10066000114000F4E06008431B49084318607047DC
:1006700070B5184B1C68C4F302230124C3F10705AD
:10068000052D2EBF0F2504FA05F56D1E1E1D072E24
:1006900034BF0023DB1E2940994004FA03F3BDE870
:1006A00070405B1E1A401143C8E7401EB0F1807FC6
:1006B00001D3012070470949094A48600023F0200E
:1006C00010708B60072008600020704700E400E095
:1006D00018ED00E00CED00E00000FA0510E000E08D
:1006E00023ED00E02DE9F8474FF0000E0024704A9A
:1006F000704BDFF8C4814FF00F0982460DE0D768D8
:100700003840D06007E0C2F808C04D68AD02F6D5A9
:10071000D0680743D7600EF1010E0F6837FA0EF06C
:1007200000F0B880012000FA0EFC0CEA07076745CC
:10073000F1D1486838B301281AD002281DD0032807
:100740002ED0112816D012281AD05C4DA8421CBFFA
:100750005B4DA84217D05B4DA8421CBF5A4DA84222
:1007600011D05A4DA8421CBF594DA8420BD018E0D9
:10077000CC6816E0CC68241D13E0CC68083410E087
:10078000CC680C340DE0886808B9042409E001281D
:1007900019BF0824CAF814C00824CAF810C000E021
:1007A0000024B7F5807F03D250464FEA8E0C05E057
:1007B000AEF108050AF104004FEA850C056809FA54
:1007C0000CF6B54304FA0CF646EA050CC0F800C076
:1007D0004868C0009FD5D8F8000040F00100C8F874
:1007E0000000D8F8005005F0010500954FEA8E058D
:1007F00000984FEA9E0053F8206005F00C0C09FAAF
:100800000CF526EA0505334EB24508BF002618D080
:10081000314EB24508BF012613D0304EB24508BF55
:1008200002260ED02E4EB24508BF032609D02D4E0B
:10083000B24508BF042604D02B4EB2450CBF052696
:10084000062606FA0CF646EA050C43F820C0F843E3
:100850004D68ED0306D5D2F800C047EA0C0CC2F88B
:1008600000C002E01568054015604D68D2F804C06C
:10087000AD034CBF47EA0C0C00EA0C0CC2F804C0F4
:100880004D68D2F808C0ED024CBF47EA0C0C00EAF4
:100890000C0C38E7BDE8F18702B909040161704723
:1008A000C26801EA0203914341EA034101617047D2
:1008B000000401400800014018100240000011101F
:1008C0000000121000002110000022100000311062
:1008D0000000321000080140000C014000100140EF
:1008E0000014014000180140001C014018B585B0FB
:1008F00000F084F800F052F81022002101A800F066
:100900008FF82248224C016841F020010160026802
:1009100002F0200200920099026842F01002026088
:10092000036803F0100300930099026842F0040288
:1009300002600022006800F004000090032100988B
:1009400000F029F803210191012202920021039174
:100950000222049201A92046FFF7C4FE012120468D
:10096000FFF79EFF012200F015F84FF4FA7000F037
:1009700061F801212046FFF793FF002200F00AF8FA
:100980004FF4FA7000F056F8E8E700001810024043
:100990000010014002212046FFF77EBF00B58FB056
:1009A0002822002105A800F03BF814220021684607
:1009B00000F036F80221012205910992102100224F
:1009C0000A910C9205A8FFF7B3FB08B100F013F8E9
:1009D000002101910F204FF48061009000220391CB
:1009E0000292049200216846FFF72CFD08B100F046
:1009F00002F80FB000BD72B6FEE7000080B50748F0
:100A0000016841F0100101600320FFF724FE0F2070
:100A1000FFF7F4FD00F022F8002002BD00200240A4
:100A200010B5044610460A460146204600F038F844
:100A3000204610BD38B50446FFF7DAFD14F1010F6A
:100A4000054602D0044908780419FFF7D1FD401B80
:100A5000A042FAD331BD00BF000000200E4881B093
:100A6000016841F001010160026802F00102009298
:100A70000099426842F080524260406800F0805025
:100A8000009000980548016821F0E06141F0007194
:100A9000016001B0704700BF18100240040001401F
:100AA00062F30F2262F31F42401810F0030308D0D4
:100AB000C91A1FD3DB0748BF00F8012D28BF20F853
:100AC000022D130030B414461546103928BF20E912
:100AD0003C00FAD8490728BF20E90C0048BF40F87D
:100AE000042D890028BF20F8022D48BF00F8012DF1
:100AF00030BC7047C91818BF00F8012DCB0728BFBC
:100B000000F8012D7047000010B5074979441831ED
:100B1000064C7C44163404E00A68081D11448847DA
:100B20000146A142F8D110BD0800000018000000E5
:100B300097FAFFFF10000000B8000000000000203E
:100B40000000000000F00DF8002801D0FFF7DCFFE6
:100B5000AFF300800020AFF30080FFF7C7FE00F086
:100B600002F80120704700F001B80000074638463F
:100B700000F002F8FBE7000080B5AFF30080024A06
:100B800011001820ABBEFBE7260002000548014615
:100B900003B4684680F30988AFF30080AFF30080A8
:100BA000FFF7D0FFA5EDF5FEFEE7FEE7FEE7FEE767
:100BB000FEE770477047704700F000B802494A6886
:100BC000087882184A6070470000002070470000D3
:100BD00000000000000000000102030406070809ED
:100BE0000148804701480047CD0B00088D0B0008E5
:100BF0000100000000000000100000000024F400CC
:100C0000FFF7FEBFFFF7FEBFFFF7FEBFFFF7FEBF18
:100C1000FFF7FEBFFFF7FEBFFFF7FEBFFFF7FEBF08
:100C2000FFF7FEBFFFF7FEBFFFF7FEBFFFF7FEBFF8
:100C3000FFF7FEBFFFF7FEBFFFF7FEBFFFF7FEBFE8
:100C4000FFF7FEBFFFF7FEBFFFF7FEBFFFF7FEBFD8
:100C5000FFF7FEBFFFF7FEBFFFF7FEBFFFF7FEBFC8
:100C6000FFF7FEBFFFF7FEBFFFF7FEBFFFF7FEBFB8
:100C7000FFF7FEBFFFF7FEBFFFF7FEBFFFF7FEBFA8
:100C8000FFF7FEBFFFF7FEBFFFF7FEBFFFF7FEBF98
:100C9000FFF7FEBFFFF7FEBFFFF7FEBFFFF7FEBF88
:100CA000FFF7FEBFFFF7FEBFFFF7FEBFFFF7FEBF78
:100CB000FFF7FEBFFFF7FEBFFFF7FEBFFFF7FEBF68
:100CC000FFF7FEBFFFF7FEBFFFF7FEBFFFF7FEBF58
:100CD000FFF7FEBFFFF7FEBFFFF7FEBFFFF7FEBF48
:100CE000FFF7FEBFFFF7FEBFFFF7FEBFFFF7FEBF38
:0400000508000B8D57
:00000001FF
